{
  "transactions": [
    {
      "hash": "0x5f765efd944efdfe2b1c5ed35f150d8c0222b805d5b84163b99d4cc6fbd546e8",
      "transactionType": "CALL",
      "contractName": null,
      "contractAddress": "0x779877a7b0d9e8603169ddbd7836e478b4624789",
      "function": "transferAndCall(address,uint256,bytes)",
      "arguments": [
        "0x9DdfaCa8183c41ad55329BdeeD9F6A8d53168B1B",
        "3000000000000000000",
        "0x91317266570f33b75e081cdb6402d9b38ab3fe922765f8c229123c3acd45dbe5"
      ],
      "transaction": {
        "from": "0x645c3a312ac2806cae390086c53f91356720f923",
        "to": "0x779877a7b0d9e8603169ddbd7836e478b4624789",
        "gas": "0x1c1ff",
        "value": "0x0",
        "input": "0x4000aea00000000000000000000000009ddfaca8183c41ad55329bdeed9f6a8d53168b1b00000000000000000000000000000000000000000000000029a2241af62c00000000000000000000000000000000000000000000000000000000000000000060000000000000000000000000000000000000000000000000000000000000002091317266570f33b75e081cdb6402d9b38ab3fe922765f8c229123c3acd45dbe5",
        "nonce": "0xb",
        "chainId": "0xaa36a7"
      },
      "additionalContracts": [],
      "isFixedGasLimit": false
    }
  ],
  "receipts": [
    {
      "status": "0x1",
      "cumulativeGasUsed": "0xfb528b",
      "logs": [
        {
          "address": "0x779877a7b0d9e8603169ddbd7836e478b4624789",
          "topics": [
            "0xddf252ad1be2c89b69c2b068fc378daa952ba7f163c4a11628f55a4df523b3ef",
            "0x000000000000000000000000645c3a312ac2806cae390086c53f91356720f923",
            "0x0000000000000000000000009ddfaca8183c41ad55329bdeed9f6a8d53168b1b"
          ],
          "data": "0x00000000000000000000000000000000000000000000000029a2241af62c0000",
          "blockHash": "0x52ca907c658c9acb7c646cbc1ccc6cc95eb1895afadd61b62fd0f3728bb72bd3",
          "blockNumber": "0x73c8d2",
          "transactionHash": "0x5f765efd944efdfe2b1c5ed35f150d8c0222b805d5b84163b99d4cc6fbd546e8",
          "transactionIndex": "0x68",
          "logIndex": "0x14d",
          "removed": false
        },
        {
          "address": "0x779877a7b0d9e8603169ddbd7836e478b4624789",
          "topics": [
            "0xe19260aff97b920c7df27010903aeb9c8d2be5d310a2c67824cf3f15396e4c16",
            "0x000000000000000000000000645c3a312ac2806cae390086c53f91356720f923",
            "0x0000000000000000000000009ddfaca8183c41ad55329bdeed9f6a8d53168b1b"
          ],
          "data": "0x00000000000000000000000000000000000000000000000029a2241af62c00000000000000000000000000000000000000000000000000000000000000000040000000000000000000000000000000000000000000000000000000000000002091317266570f33b75e081cdb6402d9b38ab3fe922765f8c229123c3acd45dbe5",
          "blockHash": "0x52ca907c658c9acb7c646cbc1ccc6cc95eb1895afadd61b62fd0f3728bb72bd3",
          "blockNumber": "0x73c8d2",
          "transactionHash": "0x5f765efd944efdfe2b1c5ed35f150d8c0222b805d5b84163b99d4cc6fbd546e8",
          "transactionIndex": "0x68",
          "logIndex": "0x14e",
          "removed": false
        },
        {
          "address": "0x9ddfaca8183c41ad55329bdeed9f6a8d53168b1b",
          "topics": [
            "0x1ced9348ff549fceab2ac57cd3a9de38edaaab274b725ee82c23e8fc8c4eec7a",
            "0x91317266570f33b75e081cdb6402d9b38ab3fe922765f8c229123c3acd45dbe5"
          ],
          "data": "0x000000000000000000000000000000000000000000000000000000000000000000000000000000000000000000000000000000000000000029a2241af62c0000",
          "blockHash": "0x52ca907c658c9acb7c646cbc1ccc6cc95eb1895afadd61b62fd0f3728bb72bd3",
          "blockNumber": "0x73c8d2",
          "transactionHash": "0x5f765efd944efdfe2b1c5ed35f150d8c0222b805d5b84163b99d4cc6fbd546e8",
          "transactionIndex": "0x68",
          "logIndex": "0x14f",
          "removed": false
        }
      ],
      "logsBloom": "0x00400004000000000000000000000000000000000020000000080000020000000000000000000000000000004000000000010000000000000000000000000000000000000000000000000008000000000000000000000000000020000020000008000000000000000000000000000000000000000000000000000010000040000000000000000000000000010000800000000020000000000000000000000000000000000000000000000000010000000000000000000000000004000000000000000002001000000000000000000000000000000000000100000000000000000010000000040000800000000000000000000000000000000000000000000000",
      "type": "0x2",
      "transactionHash": "0x5f765efd944efdfe2b1c5ed35f150d8c0222b805d5b84163b99d4cc6fbd546e8",
      "transactionIndex": "0x68",
      "blockHash": "0x52ca907c658c9acb7c646cbc1ccc6cc95eb1895afadd61b62fd0f3728bb72bd3",
      "blockNumber": "0x73c8d2",
      "gasUsed": "0x133b1",
      "effectiveGasPrice": "0xd429b90e",
      "from": "0x645c3a312ac2806cae390086c53f91356720f923",
      "to": "0x779877a7b0d9e8603169ddbd7836e478b4624789",
      "contractAddress": null
    }
  ],
  "libraries": [],
  "pending": [],
  "returns": {},
  "timestamp": 1738059024,
  "chain": 11155111,
  "commit": "b63523c"
}